S02200004469676974616C2054656D70657261747572652053656E736F722E73726563FC
S11300000C9402010C941F010C941F010C941F0109
S11300100C941F010C941F010C941F010C941F01DC
S11300200C941F010C941F010C941F010C941F01CC
S11300300C941F010C941F010C941F010C941F01BC
S11300400C941F010C941F010C941F010C941F01AC
S11300500C941F0144015D0176018F01A701A701E2
S1130060A701A701A701A701A701A701A701A7014C
S1130070A701A701A701A701A701A701A701A7013C
S1130080A701A701A701A701A701A701A701A7012C
S1130090A701A70144015D0176018F01B301B501F8
S11300A0B701B901BA01BA01BA01BA01BA01BA0178
S11300B0BA01BA01BA01BA01BA01BA01BA01BA0164
S11300C0BA01BA01BA01BA01BA01BA01BA01BA0154
S11300D0BA01BA01BA01BA01BA01BA01B301B50150
S11300E0B701B901C701E001F90112022A022A028B
S11300F02A022A022A022A022A022A022A022A029C
S11301002A022A022A022A022A022A022A022A028B
S11301102A022A022A022A022A022A022A022A027B
S11301202A022A02C701E001F9011202360238024A
S11301303A023C023D023D023D023D023D023D02C7
S11301403D023D023D023D023D023D023D023D02B3
S11301503D023D023D023D023D023D023D023D02A3
S11301603D023D023D023D023D023D02360238029F
S11301703A023C0264026B02720279027F027F023D
S11301807F027F027F027F027F027F027F027F0263
S11301907F027F027F027F027F027F027F027F0253
S11301A07F027F027F027F027F027F027F027F0243
S11301B07F027F0264026B0272027902A602AD0220
S11301C0B402BB02C102C102C102C102C102C10226
S11301D0C102C102C102C102C102C102C102C10203
S11301E0C102C102C102C102C102C102C102C102F3
S11301F0C102C102C102C102C102C102A602AD0212
S1130200B402BB0211241FBECFE5D8E0DEBFCDBFD0
S113021010E0A0E6B0E0E6E0F3E102C005900D9244
S1130220A637B107D9F720E0A6E7B0E001C01D92D8
S1130230A837B207E1F70E9425050C9481090C94B4
S113024000003E9A3F9A379A329A319A309808952C
S113025097B1907E97B997B18770982B97B9369AD2
S1130260349BFECF349A84B125B190E0922B08954B
S113027090E0FC01E154F109E432F10508F067C0B3
S1130280E65DFF4F0C949106413059F42AB381E0A6
S113029090E002C0880F991F6A95E2F7822B8ABB0F
S11302A008952AB381E090E002C0880F991F6A95EF
S11302B0E2F7809582238ABB0895413059F427B32D
S11302C081E090E002C0880F991F6A95E2F7822BC3
S11302D087BB089527B381E090E002C0880F991F7F
S11302E06A95E2F78095822387BB0895413059F4DB
S11302F024B381E090E002C0880F991F6A95E2F769
S1130300822B84BB089524B381E090E002C0880F5F
S1130310991F6A95E2F78095822384BB0895413042
S113032059F421B381E090E002C0880F991F6A95C7
S1130330E2F7822B81BB089521B381E090E002C0F3
S1130340880F991F6A95E2F78095822381BB0895EF
S113035090E0FC01E154F109E432F10558F4E25B68
S1130360FF4F0C9491066ABB089567BB089564BB64
S1130370089561BB089590E0FC01E154F109E43271
S1130380F10508F067C0EE58FF4F0C949106413018
S113039059F42BB381E090E002C0880F991F6A954D
S11303A0E2F7822B8BBB08952BB381E090E002C06F
S11303B0880F991F6A95E2F7809582238BBB089575
S11303C0413059F428B381E090E002C0880F991FAE
S11303D06A95E2F7822B88BB089528B381E090E008
S11303E002C0880F991F6A95E2F78095822388BB23
S11303F00895413059F425B381E090E002C0880F9C
S1130400991F6A95E2F7822B85BB089525B381E095
S113041090E002C0880F991F6A95E2F780958223C5
S113042085BB0895413059F422B381E090E002C0C5
S1130430880F991F6A95E2F7822B82BB089522B335
S113044081E090E002C0880F991F6A95E2F78095D9
S1130450822382BB089590E0FC01E154F109E43267
S1130460F10558F4EA56FF4F0C9491066BBB0895BE
S113047068BB089565BB089562BB0895CF93DF936D
S1130480C82FD62F462F60E00E9438014D2F61E01F
S11304908C2F0E9438014D2F62E08C2F0E9438016E
S11304A04D2F63E08C2F0E943801DF91CF91089586
S11304B06F7090E0FC01E154F109E432F105F8F4C5
S11304C0E654FF4F0C9491068BB3807F8BBB8BB3A8
S11304D0682B6BBB089588B3807F88BB88B3682B77
S11304E068BB089585B3807F85BB85B3682B65BBE6
S11304F0089582B3807F82BB82B3682B62BB089568
S1130500CF93DF93C82FD62F462F64E00E94380183
S11305104D2F65E08C2F0E9438014D2F66E08C2F03
S11305200E9438014D2F67E08C2F0E943801DF9123
S1130530CF910895607F90E0FC01E154F109E43229
S1130540F105F8F4E252FF4F0C9491068BB38F70CF
S11305508BBB8BB3682B6BBB089588B38F7088BB40
S113056088B3682B68BB089585B38F7085BB85B34A
S1130570682B65BB089582B38F7082BB82B3682BEE
S113058062BB0895E0917600F091770041E06085C8
S113059087810E94BB0183EF91E00197F1F700C0CE
S11305A00000E0917600F091770040E0608587815B
S11305B00E94BB0108958F92AF92CF92EF920F9356
S11305C0CF93DF93CDB7DEB7909377008093760017
S11305D0FC016083E0917600F09177004183E09123
S11305E07600F091770022830383E482C582A68299
S11305F087828A858087DF91CF910F91EF90CF908A
S1130600AF908F900895CF93C82FE0917600F0912A
S113061077008081813081F46C2F82810E942B02CB
S1130620E0917600F091770040E0648183810E943C
S1130630BB010E94C20258C08181813059F56C2FE0
S113064062956F7082810E949A02E0917600F09127
S1130650770040E0648183810E94BB010E94C20252
S1130660E0917600F09177006C2F82810E949A02CB
S1130670E0917600F091770040E0648183810E94EC
S1130680BB010E94C20289EF90E00197F1F700C01C
S113069000002AC06C2F62956F7082810E945802FC
S11306A0E0917600F091770040E0648183810E94BC
S11306B0BB010E94C202E0917600F09177006C2F9A
S11306C082810E945802E0917600F091770040E028
S11306D0648183810E94BB010E94C20289EF90E081
S11306E00197F1F700C00000CF9108958091760042
S11306F090917700892B09F4D2C08FE493EC019791
S1130700F1F700C00000E0917600F091770041E03D
S1130710648183810E943801E0917600F091770032
S113072041E0668185810E943801E0917600F09174
S1130730770041E0608587810E943801E09176006E
S1130740F091770080818130C1F56FEF82810E9442
S1130750A801E0917600F091770040E06681858100
S11307600E94BB0185EA9EE00197F1F700C00000FA
S113077088E30E94030389EF90E00197F1F700C03A
S113078000008EE00E94030389EF90E00197F1F7E7
S113079000C0000081E00E94030383EC99E001970C
S11307A0F1F700C0000086E00E94030389EF90E0A7
S11307B00197F1F700C00000089581818130C1F5EF
S11307C061E082810E948002E0917600F0917700DE
S11307D040E0668185810E94BB0185EA9EE0019725
S11307E0F1F700C0000088E30E94030389EF90E062
S11307F00197F1F700C000008EE00E94030389EF27
S113080090E00197F1F700C0000081E00E9403032B
S113081083EC99E00197F1F700C0000086E00E94A4
S1130820030389EF90E00197F1F700C000000895F9
S113083061E082810E943E02E0917600F0917700AF
S113084040E0668185810E94BB0185EA9EE00197B4
S1130850F1F700C0000088E30E94030389EF90E0F1
S11308600197F1F700C000008EE00E94030389EFB6
S113087090E00197F1F700C0000081E00E940303BB
S113088083EC99E00197F1F700C0000086E00E9434
S1130890030389EF90E00197F1F700C00000089589
S11308A0CF93C82FE0917600F0917700808181305A
S11308B0B1F46C2F82810E942B02E0917600F091BA
S11308C0770041E0648183810E94BB010E94C202DF
S11308D089EF90E00197F1F700C0000058C08181D2
S11308E0813059F56C2F62956F7082810E949A0253
S11308F0E0917600F091770041E0648183810E9469
S1130900BB010E94C202E0917600F09177006C2F47
S113091082810E949A02E0917600F091770041E092
S1130920648183810E94BB010E94C20289EF90E02E
S11309300197F1F700C000002AC06C2F62956F7018
S113094082810E945802E0917600F091770041E0A4
S1130950648183810E94BB010E94C202E0917600FF
S1130960F09177006C2F82810E945802E09176000A
S1130970F091770041E0648183810E94BB010E9471
S1130980C20289EF90E00197F1F700C00000CF9117
S11309900895CF93DF93EC018881882331F0219669
S11309A00E94500489918111FBCFDF91CF9108956A
S11309B09FEF980F933070F49FEF960F903160F48F
S11309C0813019F42FE7260F08C0823031F42FEB61
S11309D0260F03C020E801C020E8822F0E940303F1
S11309E089EF90E00197F1F700C0000008950F939C
S11309F01F93CF93DF93CDB7DEB727970FB6F89445
S1130A00DEBF0FBECDBF9F938F937F936F9380E61E
S1130A1090E09F938F938E010F5F1F4F1F930F934F
S1130A200E949706C8010E94C9040FB6F894DEBF5D
S1130A300FBECDBF27960FB6F894DEBF0FBECDBF55
S1130A40DF91CF911F910F910895CF93DF93CDB78D
S1130A50DEB729970FB6F894DEBF0FBECDBF82E094
S1130A608F930F2EF2E48F2EF02DAA24A3940F2E31
S1130A70F2E4CF2EF02DE12C02E424E441E061E025
S1130A80CE0101960E94DB020E9476030E9421019E
S1130A908FE690E00E94C9040F9080E00E94280134
S1130AA08C0166E081E00E94D804B80180E090E007
S1130AB00E94960520E030E040E85EE30E942406B0
S1130AC00E94670580E090E00E94F704E6CF0E9450
S1130AD0030688F09F5798F0B92F9927B751B0F0C3
S1130AE0E1F0660F771F881F991F1AF0BA95C9F7AE
S1130AF014C0B13091F00E941D06B1E008950C9429
S1130B001D06672F782F8827B85F39F0B93FCCF3DB
S1130B10869577956795B395D9F73EF4909580952A
S1130B20709561957F4F8F4F9F4F0895E89409C04A
S1130B3097FB3EF490958095709561957F4F8F4F0C
S1130B409F4F9923A9F0F92F96E9BB279395F69522
S1130B50879577956795B795F111F8CFFAF4BB0FA0
S1130B6011F460FF1BC06F5F7F4F8F4F9F4F16C004
S1130B70882311F096E911C0772321F09EE8872F8E
S1130B80762F05C0662371F096E8862F70E060E04A
S1130B902AF09A95660F771F881FDAF7880F9695C3
S1130BA0879597F9089597F99F6780E870E060E06A
S1130BB008959FEF80EC089500240A9416161706F2
S1130BC018060906089500240A941216130614063A
S1130BD005060895092E0394000C11F4882352F09D
S1130BE0BB0F40F4BF2B11F460FF04C06F5F7F4F55
S1130BF08F4F9F4F089557FD9058440F551F59F03C
S1130C005F3F71F04795880F97FB991F61F09F3FF5
S1130C1079F087950895121613061406551FF2CF1E
S1130C204695F1DF08C0161617061806991FF1CF6E
S1130C3086957105610508940895E894BB27662795
S1130C407727CB0197F908950E9437060C94EA059B
S1130C500E94DC0538F00E94E30520F0952311F092
S1130C600C94D3050C94D90511240C941E060E94EF
S1130C70FB0570F3959FC1F3950F50E0551F629FDC
S1130C80F001729FBB27F00DB11D639FAA27F00DE1
S1130C90B11DAA1F649F6627B00DA11D661F829F08
S1130CA02227B00DA11D621F739FB00DA11D621FED
S1130CB0839FA00D611D221F749F3327A00D611D0A
S1130CC0231F849F600D211D822F762F6A2F1124EC
S1130CD09F5750409AF0F1F088234AF0EE0FFF1F1F
S1130CE0BB1F661F771F881F91505040A9F79E3F76
S1130CF0510580F00C94D3050C941E065F3FE4F379
S1130D00983ED4F3869577956795B795F795E795CB
S1130D109F5FC1F7FE2B880F911D9695879597F9D4
S1130D200895EE0FFF1F0590F491E02D0994AEE0B5
S1130D30B0E0EDE9F6E00C9458090D891E8986E0CF
S1130D408C831A8309838FEF9FE79E838D83AE0183
S1130D50475E5F4F6F89788DCE0101960E94B90678
S1130D60EF81F885E00FF11F10822E96E4E00C94D9
S1130D707409ABE0B0E0EFEBF6E00C944A096C01C7
S1130D807B018A01FC0117821682838181FFCCC119
S1130D90CE0101963C01F6019381F70193FD859103
S1130DA093FF81917F01882309F4BAC1853239F414
S1130DB093FD859193FF81917F01853229F4B601DA
S1130DC090E00E94B008E7CF912C212C312CFFE158
S1130DD0F315D8F08B3279F038F4803279F083321D
S1130DE0A1F4232D20611DC08D3261F0803369F49C
S1130DF0232D216016C0832D8260382EE32DE460FC
S1130E003E2E2AC0F32DF8601DC037FC2DC020ED06
S1130E10280F2A3040F08E32B9F436FC81C1232DDC
S1130E202064322E19C036FE06C08AE0989E200D3A
S1130E301124922E11C0EAE02E9E200D1124222EA0
S1130E40F32DF0623F2E08C08C3621F4832D806888
S1130E50382E02C0883641F4F70193FD859193FF43
S1130E6081917F018111B3CF982F9F7D9554933049
S1130E7028F40C5F1F4F9FE399830DC0833631F034
S1130E80833771F0833509F059C021C0F80180819E
S1130E9089830E5F1F4F88248394912C530113C0C0
S1130EA02801F2E04F0E511CF801A080B18036FEFB
S1130EB003C0692D70E002C06FEF7FEFC5010E948F
S1130EC0A5084C018201F32DFF773F2E16C028019F
S1130ED022E0420E511CF801A080B18036FE03C00E
S1130EE0692D70E002C06FEF7FEFC5010E949A0880
S1130EF04C01F32DF0683F2E820133FC1BC0822D80
S1130F0090E088169906B0F4B60180E290E00E9461
S1130F10B0082A94F4CFF50137FC859137FE81910E
S1130F205F01B60190E00E94B00821102A9421E0EC
S1130F30821A91088114910471F7E8C0843611F083
S1130F40893641F5F80137FE07C0608171818281DD
S1130F5093810C5F1F4F08C060817181072E000CC4
S1130F60880B990B0E5F1F4FF32DFF763F2E97FFD3
S1130F7009C090958095709561957F4F8F4F9F4FD5
S1130F80F0683F2E2AE030E0A3010E94EC08882E8E
S1130F90861845C0853731F4232D2F7EB22E2AE0E2
S1130FA030E025C0932D997FB92E8F36C1F018F407
S1130FB0883579F0B5C0803719F0883721F0B0C092
S1130FC0E92FE061BE2EB4FE0DC0FB2DF460BF2EF0
S1130FD009C034FE0AC0292F2660B22E06C028E0BC
S1130FE030E005C020E130E002C020E132E0F80149
S1130FF0B7FE07C060817181828193810C5F1F4FAE
S113100006C06081718180E090E00E5F1F4FA301F4
S11310100E94EC08882E8618FB2DFF773F2E36FEA3
S11310200DC0232D2E7FA22E891458F434FE0BC03C
S113103032FC09C0832D8E7EA82E05C0B82CA32CAB
S113104003C0B82C01C0B92CA4FE0FC0FE01E80DEA
S1131050F11D8081803321F49A2D997EA92E09C037
S1131060A2FE06C0B394B39404C08A2D867809F016
S1131070B394A3FC11C0A0FE06C0B21488F4280CDB
S1131080922C9B180EC0B21460F4B60180E290E07A
S11310900E94B008B394F7CFB21418F42B1802C00E
S11310A0982C212CA4FE10C0B60180E390E00E948D
S11310B0B008A2FE17C0A1FC03C088E790E002C0FC
S11310C088E590E0B6010CC08A2D867859F0A1FE1F
S11310D002C08BE201C080E2A7FC8DE2B60190E081
S11310E00E94B008891438F4B60180E390E00E94AD
S11310F0B0089A94F7CF8A94F301E80DF11D80812A
S1131100B60190E00E94B0088110F5CF222009F4C6
S113111042CEB60180E290E00E94B0082A94F6CF55
S1131120F6018681978102C08FEF9FEF2B96E2E153
S11311300C946609FC010590615070400110D8F7C9
S1131140809590958E0F9F1F0895FC01615070400B
S113115001900110D8F7809590958E0F9F1F0895E8
S11311600F931F93CF93DF93FB01238121FD03C0D2
S11311708FEF9FEF2CC022FF16C046815781248138
S113118035814217530744F4A081B1819D012F5F3B
S11311903F4F318320838C93268137812F5F3F4FCC
S11311A03783268314C08B01EC01FB010084F18595
S11311B0E02D0995892BE1F6D80116968D919C9125
S11311C01797019617969C938E931697CE01DF91ED
S11311D0CF911F910F910895FA01AA27283051F158
S11311E0203181F1E8946F936E7F6E5F7F4F8F4F54
S11311F09F4FAF4FB1E03ED0B4E03CD0670F781FB3
S1131200891F9A1FA11D680F791F8A1F911DA11D97
S11312106A0F711D811D911DA11D20D009F46894D0
S11312203F912AE0269F11243019305D3193DEF678
S1131230CF010895462F4770405D4193B3E00FD02E
S1131240C9F7F6CF462F4F70405D4A3318F0495D19
S113125031FD4052419302D0A9F7EACFB4E0A695FC
S11312609795879577956795BA95C9F7009761051E
S1131270710508959B01AC010A2E06945795479574
S113128037952795BA95C9F7620F731F841F951F69
S1131290A01D08952F923F924F925F926F927F927A
S11312A08F929F92AF92BF92CF92DF92EF92FF9272
S11312B00F931F93CF93DF93CDB7DEB7CA1BDB0B1E
S11312C00FB6F894DEBF0FBECDBF09942A883988C3
S11312D048885F846E847D848C849B84AA84B984CA
S11312E0C884DF80EE80FD800C811B81AA81B981D6
S11312F0CE0FD11D0FB6F894DEBF0FBECDBFED01EA
S10913000895F894FFCFEC
S11313062564002D002573256425302E346400548D
S1091316656D703D00004E
S9030000FC
